:020000040000FA
:040000008A016828E1
:08000800A9000308B000830108
:100010000A08B1008A010408B2000B1919208330C4
:1000200081003208840031088A00300883002908E2
:100030000900B60AB30A64303306031920282928B8
:10004000B301B40A0A303406031D2928B301B401F0
:1000500035140B1108008316023081000030850032
:10006000F0308600003087000030880000308900C2
:1000700006309F008312A0308B00833081008701FF
:100080000330850086013F30850089018801C40165
:10009000C501C601C701C801C901F501D001D101DF
:1000A000D201D301D401D501D601D701D901E00194
:1000B000E101E201E301E401E501E601E701E80114
:1000C000E901F001F101F201F301F401F901080085
:1000D0002B2017230030C400D000D300D700D80055
:1000E000D900E000E800F200F300F4004D30C50054
:1000F0004130C6004E30C7004530C8004A30C90004
:100100004F30F5004430D1004530D2005530D40096
:100110004E30D5004130D6004D30E1004530E20090
:100120004D30E3004F30E4005230E5004930E60046
:100130004130E7005230E9004130F0004D30F1002D
:1001400097238614000006110608C000F030C00591
:10015000F03040020319A128E03040020319B8280A
:10016000D030400203197429B030400203196A28C4
:100170000030C400C500C600C700D400D500D600BA
:10018000D700D800D900F000F100F200F300F4002D
:100190004C30C8004530C9004330F5005430D00021
:1001A0005530D1005230D2004130D3004430E0000D
:1001B0004930E1005230E2004530E3004330E400D2
:1001C0004330E5004930E6004F30E7004E30E800AC
:1001D0003A30E90097238510CC30870099248514A4
:1001E00078224108F800B9002623390887009924AD
:1001F000B0248510CD3087009924851478224108D9
:10020000F700B9002623390887009924B024851007
:10021000CE3087009924851478224108F600B90071
:100220002623390887009924B0248316FF308700DD
:100230008312770E760788007808890085120000FF
:1002400000000000000085119E240708C3008515EA
:10025000000000000000851683160030870083121E
:10026000851001308700992485148510C4308700DB
:10027000992485144308B700B800443087009924B6
:10028000A424413087009924A42454308700992461
:10029000A4244F3087009924A4243A30870099245D
:1002A000A424F030B705B70E3708B9002623390863
:1002B00087009924A4240F30B8053808B9002623F4
:1002C000390887009924A424483087009924A4245D
:1002D0008614000006110608C000F030C005F0309A
:1002E0004002031DAC2868290030C400C500C600C8
:1002F000D500D600D700D800D900E400E500E6001C
:10030000E700F000F100F200F300F4004530C70010
:100310005330C8004330C9005230F5004930D00096
:100320005430D1005530D2005230D3004130D40087
:100330004430E0004930E1005230E2003A30E3005E
:100340004430E8004130E9005430F0004F30F10013
:100350003A30F20097238510C53087009924851420
:1003600078224108F800B90026233908870099242B
:10037000B0248510C630870099248514782241085E
:10038000F700B9002623390887009924B024851086
:10039000C73087009924851478224108F600B900F7
:1003A0002623390887009924B024770E7607880021
:1003B0007808890083160030870083128510CE30BC
:1003C00087009924851478224108F700B900262374
:1003D000390887009924B0248510CF3087009924EC
:1003E000851478224108F600B900262339088700D1
:1003F0009924B024770E760787008512000000004C
:100400000000000005119E240515000000000000FA
:1004100085168614000006110608C000F030C005DD
:10042000F0304002031DAC28092A02308900353023
:10043000880083160030C70083124B308700851276
:10044000000000000000000005119E2405150000BA
:100450000000000085168316FF30870083120230EB
:10046000890035308800851200000000000000007F
:1004700085119E240708C3008515000000000000B8
:10048000851683160030870083128510C5308700DB
:10049000992485144308B700B80044308700992494
:1004A000A424413087009924A4245430870099243F
:1004B000A4244F3087009924A4243A30870099243B
:1004C000A424F030B705B70E3708B9002623390841
:1004D00087009924A4240F30B8053808B9002623D2
:1004E000390887009924A424483087009924A4243B
:1004F0008615000006100608C000F030C005F03078
:1005000040020319932AE03040020319FB2AD0303D
:1005100040020319FE2AB03040020319012B70304B
:1005200040020319042B0614000086100608C000C0
:10053000F030C005F03040020319AE2AE03040022E
:100540000319F22AD03040020319F52AB0304002D4
:100550000319F82A703040020319072B8614000093
:1005600006110608C000F030C005F0304002031943
:10057000C92AE03040020319E92AD03040020319A9
:10058000EC2AB03040020319EF2A70304002031900
:100590000A2B0615000086110608C000F030C005C1
:1005A000F03040020319782AE03040060319132B7B
:1005B000D03040060319E62AB03040060319102B4C
:1005C0007030400603190D2BA424782A0030C10096
:1005D000162B0130C100162B0230C100162B033040
:1005E000C100162B0430C100162B0530C100162B9C
:1005F0000630C100162B0730C100162B0830C10091
:10060000162B0930C100162B0A30C100162B0B30F7
:10061000C100162B0C30C100162B0D30C100162B5B
:100620000E30C100162B0F30C100162B08008510AC
:100630003830870099240C308700992401308700D6
:1006400099248030870099248514080000303902ED
:100650000319672B0130390203196A2B0230390262
:1006600003196D2B033039020319702B0430390242
:100670000319732B053039020319762B0630390222
:100680000319792B0730390203197C2B0830390202
:1006900003197F2B093039020319822B0A303902E2
:1006A0000319852B0B3039020319882B0C303902C2
:1006B00003198B2B0D30390203198E2B0E303902A2
:1006C0000319912B0F3039020319942B962B3030DC
:1006D000B900962B3130B900962B3230B900962BE9
:1006E0003330B900962B3430B900962B3530B90031
:1006F000962B3630B900962B3730B900962B383010
:10070000B900962B3930B900962B4130B900962BA1
:100710004230B900962B4330B900962B4430B900D3
:10072000962B4530B900962B4630B900080085104D
:100730008030870099248514440887009924851007
:1007400081308700992485144508870099248510F5
:1007500082308700992485144608870099248510E3
:1007600083308700992485144708870099248510D1
:1007700084308700992485144808870099248510BF
:1007800085308700992485144908870099248510AD
:100790008630870099248514750887009924851070
:1007A0008730870099248514500887009924851084
:1007B0008830870099248514510887009924851072
:1007C0008930870099248514520887009924851060
:1007D0008A3087009924851453088700992485104E
:1007E0008B3087009924851454088700992485103C
:1007F0008C3087009924851455088700992485102A
:100800008D30870099248514560887009924851017
:100810008E30870099248514570887009924851005
:100820008F308700992485145808870099248510F3
:10083000C0308700992485145908870099248510B1
:10084000C130870099248514600887009924851099
:10085000C230870099248514610887009924851087
:10086000C330870099248514620887009924851075
:10087000C430870099248514630887009924851063
:10088000C530870099248514640887009924851051
:10089000C63087009924851465088700992485103F
:1008A000C73087009924851466088700992485102D
:1008B000C83087009924851467088700992485101B
:1008C000C930870099248514680887009924851009
:1008D000CA308700992485146908870099248510F7
:1008E000CB308700992485147008870099248510DF
:1008F000CC308700992485147108870099248510CD
:10090000CD308700992485147208870099248510BA
:10091000CE308700992485147308870099248510A8
:10092000CF30870099248514740887009924851096
:10093000080005109E240514A4240800B601013007
:100940003602031D9F2C0800B60128303602031D15
:10095000A52C0800B60102303602031DAB2C08009E
:10096000B601FA303602031DB12C0800B60104307E
:100970003602031DB72C0800B601F90AFA30360218
:0E098000031DBE2C09300002031DBC2C080014
:02400E00313F40
:00000001FF
