:020000040000FA
:040000008A015528F4
:08000800A9000308B000830108
:100010000A08B1008A010408B2000B1919208330C4
:1000200081003208840031088A00300883002908E2
:100030000900B60AB30A64303306031920282928B8
:10004000B301B40A0A303406031D2928B301B401F0
:1000500035140B1108008316023081003C308500F6
:10006000F030860000308700FF30880007308900BC
:1000700006309F008312A0308B00833081008701FF
:1000800003308500A901B001B101B201B301B4018F
:10009000B501A301A401A501A601A701A801C601FC
:1000A000C701C5010F30860008002B2056225A20B8
:1000B000B82157288615061186140614861FA22813
:1000C000A3202308C4002408C3002508C200260872
:1000D000C1002708C0002808B900B220A30A0A30CE
:1000E0002302031D5A28A301A40A06302402031D7B
:1000F0005A28A301A401A50A0A302502031D5A2883
:10010000A301A401A501A60A06302602031D5A2850
:10011000A301A401A501A601A70A0A302702031D15
:100120005A28A301A401A501A601A701A80A03302A
:100130002802031D5A28A301A401A501A601A701B5
:10014000A8015A28080002302802031DB1280430F3
:100150002702031DB128A301A401A501A601A7013F
:10016000A80108000510843087006522051430308E
:100170003907870065220510853087006522051440
:1001800030304007870065220510863087006522E1
:1001900005143A30870065220510873087006522F4
:1001A000051430304107870065220510883087002C
:1001B000652205143030420787006522051089301A
:1001C0008700652205143A308700652205108A30C1
:1001D000870065220514303043078700652205102B
:1001E0008B30870065220514303044078700652274
:1001F0000000351CF8283510080086150000061090
:100200000608C500F030C505F0304502031918296D
:10021000E030450203198E29D03045020319932995
:10022000B0304502031998297030450203199D2901
:100230000614000086100608C500F030C505F03031
:10024000450203193329E030450203197F29D030D4
:10025000450203198429B0304502031989297030F9
:1002600045020319A2298614000006110608C500DC
:10027000F030C505F030450203194E29E030450243
:1002800003197029D030450203197529B030450291
:1002900003197A29703045020319A72906150000B1
:1002A00086110608C500F030C505F0304502031977
:1002B000FD28E03045060319B529D030450603195D
:1002C0006B29B03045060319B02970304506031973
:1002D000AB297022FD283030C6000030C700B72996
:1002E0003130C6000130C700B7293230C6000230B5
:1002F000C700B7293330C6000330C700B7293430F0
:10030000C6000430C700B7293530C6000530C70025
:10031000B7293630C6000630C700B7293730C600C7
:100320000730C700B7293830C6000830C700B729E2
:100330003930C6000930C700B7294130C6000A303D
:10034000C700B7294230C6000B30C700B729433079
:100350000C30C700B7294430B5140D30C700B72999
:100360002330C6000E30C700B729B515C6000800F7
:1003700000003511FD20B5182F2AB519282A470885
:10038000A80031223519B92905108430870065226B
:10039000051446088700652276223511FD20B51820
:1003A0002F2A4708A70031223519CD29051085309D
:1003B00087006522051446088700652276223511DC
:1003C000FD20B5182F2A4708A60031223519DF294C
:1003D00005108730870065220514460887006522CE
:1003E00076223511FD20B5182F2A4708A5003122A5
:1003F0003519F12905108830870065220514460853
:100400008700652276223511FD20B5182F2A47086E
:10041000A40031223519032A05108A30870065228D
:10042000051446088700652276223511FD20B5188F
:100430002F2A4708A30031223519152A05108B30C1
:100440008700652205144608870065227622B829B0
:1004500005100130870065220514B511B829B510C3
:10046000080003302802831C362A4A2A0230280258
:10047000031D402A3B2A04302702831C402A4C2AB1
:1004800006302602831C452A4E2A06302402831C8D
:10049000542A502AA801522AA701522AA601522AF8
:1004A000A401522A3515552A351108000510383097
:1004B000870065220C3087006522013087006522A5
:1004C0008030870065220514080085106A22851493
:1004D00070220800B60101303602031D6B2A0800A5
:1004E000B60128303602031D712A0800B601FA3021
:0804F0003602031D772A080003
:02400E00313F40
:00000001FF
