:020000040000FA
:040000008A015128F8
:08000800A9000308B000830108
:100010000A08B1008A010408B2000B1919208330C4
:1000200081003208840031088A00300883002908E2
:100030000900B60AB30A64303306031920282A28B7
:10004000B301B40A0A303406031D2A28B301B401EF
:100050003514C50A0B1108008316823081003C302C
:100060008500FF30860000308700FF3088000730B1
:10007000890006309F008312A0308B0083308100FE
:10008000870103308500A901B001B101B201B301BC
:10009000B401B501A301A401A501A601A701A8010E
:1000A00008002C207D202308C4002408C3006620FB
:1000B000A30A0A302302031D5328A301A40A0A300D
:1000C0002402031D5328A301A401532805108730DF
:1000D00087008F2005143030430787008F200510DC
:1000E000883087008F2005143030440787008F2028
:1000F0000000351C782835100800051038308700BE
:100100008F200C3087008F20013087008F200C302B
:1001100087008F20803087008F200514080085100D
:10012000932085149920B60101303602031D9428CE
:0E0130000800B60128303602031D9A28080088
:02400E00313F40
:00000001FF
