:020000040000FA
:040000008A015F28EA
:08000800A9000308B000830108
:100010000A08B1008A010408B2000B1919208330C4
:1000200081003208840031088A00300883002908E2
:100030000900B60AB30A64303306031920282928B8
:10004000B301B40A0A303406031D2928B301B401F0
:1000500035140B1108008316023081003C308500F6
:10006000F0308600003087000030880007308900BB
:1000700006309F008312A0308B00833081008701FF
:1000800003308500A901B001B101B201B301B4018F
:10009000B501C601C701C5018801C401C301C20180
:1000A000C101C001B901C801C901D001D101D2010A
:1000B000D301D401D501D6010F30860008002B20D2
:1000C000CA21D80188010030C300D6004730C200E1
:1000D0004530C1004E30C0004530B9005230C80034
:1000E0004130C9004430D0004F30D1005230D200EE
:1000F0004630D4004230D50051218614000006114C
:100100000608C500F030C505F030450203197D280A
:10011000E030450203199428D03045020319DC2849
:10012000B030450203192029051001308700D9217C
:100130000030C400C300C200C100D400D500D60006
:100140005330C0004530B9004E30C8004F30C900B0
:100150004930D0004430D1004130D2004C30D3007F
:1001600051218614000006110608C500F030C505AF
:10017000F0304502031D7D288615061586100614ED
:10018000061E6128D80158088800EA210D30D807DA
:10019000F7305806031DC32858088800F621580870
:1001A0008800EA210D30D80200305806031DCF2800
:1001B00058088800F621B128051001308700D921A0
:1001C0000030C400C300C200D500D6005430C100C6
:1001D0005230C0004930B9004130C8004E30C9002B
:1001E0004730D0005530D1004C30D2004130D300E0
:1001F0005230D40051218614000006110608C500B3
:10020000F030C505F0304502031D7D288615061522
:1002100086100614061E6128D80158088800F621A9
:100220001930D807FA305806031D0D2958088800E0
:10023000F6211930D80200305806031D1629FB2874
:100240000030C400C300C200C100D200D300D400FB
:10025000D500D6004430C0004930B9004730C8004E
:100260004930C9005430D0004130D1004C30D20068
:1002700051218614000006110608C500F030C5059E
:10028000F0304502031D7D288615061586100614DC
:10029000061E6128FF308800F02100308800F02120
:1002A0003929051080308700D921051444088700BA
:1002B000D921051081308700D92105144308870012
:1002C000D921051082308700D92105144208870002
:1002D000D921051083308700D921051441088700F2
:1002E000D921051084308700D921051440088700E2
:1002F000D921051085308700D921051439088700D8
:10030000D921051086308700D921051448088700B7
:10031000D921051087308700D921051449088700A5
:10032000D921051088308700D9210514500887008D
:10033000D921051089308700D9210514510887007B
:10034000D92105108A308700D92105145208870069
:10035000D92105108B308700D92105145308870057
:10036000D92105108C308700D92105145408870045
:10037000D92105108D308700D92105145508870033
:10038000D92105108E308700D92105145608870021
:10039000D9210800051038308700D9210C3087009A
:1003A000D92101308700D92180308700D921051457
:1003B00008008510DE218514E4210800B601013013
:1003C0003602031DDF290800B60128303602031D5E
:1003D000E5290800B60102303602031DEB290800AA
:1003E000B60129303602031DF1290800B601043098
:0803F0003602031DF729080085
:02400E00313F40
:00000001FF
