:020000040000FA
:040000008A01442805
:08000800A9000308B000830108
:100010000A08B1008A010408B2000B1919203E3009
:1000200081003208840031088A00300883002908E2
:100030000900B60AB30A7D303306031920282B289D
:10004000B301B40A01303406031D2B28B301B401F7
:1000500035140B1135140B11080083168230810002
:1000600027308500FF308600FF308700FF30880092
:100070000730890006309F008312A0308B00833048
:100080008100B501850108002D205320051E4B2855
:1000900005124D28452805164528851D512885112E
:1000A0004528851545280000351C532835100800C3
:02400E00393F38
:00000001FF
