:020000040000FA
:040000008A015028F9
:08000800A9000308B000830108
:100010000A08B1008A010408B2000B1919208330C4
:1000200081003208840031088A00300883002908E2
:100030000900B60AB30A64303306031920282928B8
:10004000B301B40A0A303406031D2928B301B401F0
:1000500035140B1108008316823081003C30850076
:10006000FF30860000308700FF30880003308900B1
:1000700006309F008312A0308B00833081008701FF
:1000800003308500A901B001B101B201B301B4018F
:10009000B501A301A401A501A601A701A8010800BB
:1000A0002B20F02094202308C4002408C300250836
:1000B000C2002608C1002708C0002808B900A320F4
:1000C000A30A0A302302031D5228A301A40A063002
:1000D0002402031D5228A301A401A50A0A30250207
:1000E000031D5228A301A401A501A60A0630260279
:1000F000031D5228A301A401A501A601A70A0A30E5
:100100002702031D5228A301A401A501A601A701EE
:10011000A80A03302802031D5228A301A401A50147
:10012000A601A701A801522802302802031DA22817
:1001300004302702031DA228A301A401A501A601E2
:10014000A701A8010800051084308700FF200514CE
:10015000303039078700FF20051085308700FF20E9
:100160000514303040078700FF20051086308700D7
:10017000FF2005143A308700FF20051087308700E4
:10018000FF200514303041078700FF20051088301C
:100190008700FF200514303042078700FF2005103C
:1001A00089308700FF2005143A308700FF200510B2
:1001B0008A308700FF200514303043078700FF2076
:1001C00005108B308700FF2005143030440787006E
:1001D000FF2009110000351CEA2835100915080018
:1001E000051038308700FF200C308700FF200130D9
:1001F0008700FF2080308700FF200514080085104D
:10020000042185140A210800B60101303602031DBD
:1002100005290800B60128303602031D0B29080005
:020220000915BE
:02400E00313F40
:00000001FF
