:020000040000FA
:040000008A01482801
:08000800A9000308B000830108
:100010000A08B1008A010408B2000B1919208330C4
:1000200081003208840031088A00300883002908E2
:100030000900B60AB30A64303306031920282A28B7
:10004000B301B40A0A303406031D2A28B301B401EF
:10005000B70A35140B1108008316023081003F30B7
:100060008500E030860000308700FF3088000730D0
:10007000890006309F008312A0308B0083308100FE
:10008000A901B001B101B201B301B40186010800B8
:100090002C20B70111308600003087000221860134
:1000A00002210A308600FD308700022100308600E0
:1000B000022104308600F3308700022100308600E0
:1000C000022105303702031D4A28B701113086008E
:1000D000C1308700022186010E308600BE308700C5
:1000E00002210030860005303702031D6628B70163
:1000F0000130860000308700022186010230860030
:10010000F630870002210030860004308600E63099
:10011000870002210030860008308600D630870034
:1001200002210030860010308600B930870002219D
:100130000030860005303702031D7828B7011130E2
:10014000860003308700022186010A3086006D3068
:100150008700022100308600043086006E30870060
:1001600002210030860005303702031D9F28B701A9
:100170000130860000308700022186011E30860093
:10018000BF30870002210030860005303702031D92
:10019000B828B70111308600EF30870002218601B0
:1001A0000A30860095308700022100308600043036
:1001B0008600E230870002210030860001303702DD
:1001C000031DCA28B70111308600BB308700022109
:1001D00086010A308600D530870002210030860073
:1001E00004308600E23087000221003086000130B2
:1001F0003702031DE328B80A05303802031DC92859
:10020000B8014928B60103303606031D032908004A
:02400E00313F40
:00000001FF
