:020000040000FA
:040000008A015328F6
:08000800A0000308A100830120
:100010000A08A2008A010408A3000B191920643001
:1000200081002308840022088A0021088300200818
:100030000900A70AA40A64302406031920282928E5
:10004000A401A50A0A302506031D2928A401A5013B
:1000500026140B1108008316023081002C30850015
:10006000F030860000308700FF30880007308900BC
:1000700006309F008312A0308B0083308100A601E0
:10008000870103308500A001A101A201A301A40101
:10009000A501A601C001C101C201C301C401C5017E
:1000A000C701C90108002B20061486140611861505
:1000B0006C225B2059280000A820861FA42006146B
:1000C0008614061186154008B8004108B70042089A
:1000D000B6004308B5004408B4004508B300242224
:1000E000C00A0A304002031D5B28C001C10A063065
:1000F0004102031D5B28C001C101C20A0A3042024D
:10010000031D5B28C001C101C201C30A06304302BE
:10011000031D5B28C001C101C201C301C40A0A302A
:100120004402031D5B28C001C101C201C301C40117
:10013000C50A03304502031D5B28C001C101C2018D
:10014000C301C401C50108007D227B2126120800DD
:10015000023045020319AD28CC28043044020319AB
:10016000B228CC28003043020319B728CC2800302D
:1001700042020319BC28CC28003041020319C128CF
:10018000CC28003040020319C628CC28C001C10188
:10019000C201C301C401C501080026128615000072
:1001A00006100608C900F030C905F03049020319ED
:1001B000E928E030490203195F29D03049020319C8
:1001C0006429B030490203196929703049020319C2
:1001D0006E290614000086100608C900F030C90513
:1001E000F030490203190429E0304902031950296B
:1001F000D030490203195529B030490203195A2950
:10020000703049020319702986140000061106088F
:10021000C900F030C905F030490203191F29E03048
:10022000490203194129D030490203194629B03047
:10023000490203194B297030490203197229061526
:10024000000086110608C900F030C905F0304902E7
:100250000319CD28E030490603197929D030490621
:1002600003193C29B0304906031977297030490633
:100270000319742995227A293030C7000030C6004E
:100280007A293130C7000130C6007A293230C700E0
:100290000230C6007A293330C7000330C6007A29FD
:1002A0003430C7000430C6007A293530C700053025
:1002B000C6007A293630C7000630C6007A293730A2
:1002C000C7000730C6007A293830C7000830C6009A
:1002D0007A293930C7000930C6007A294130CD2843
:1002E0004230CD284330CD28443026167A29233099
:1002F000CD28CD2808008622A612CD20261AEA296C
:100300004608C500EB21A61A7C2905108430870019
:100310001F220514470887001F228622A612CD201F
:10032000261AEA294608C400EB21A61A8E290510D0
:10033000853087001F220514470887001F22862268
:10034000A612CD20261AEA294608C300EB21A61AD8
:10035000A0290510873087001F2205144708870051
:100360001F228622A612CD20261AEA294608C2009C
:10037000EB21A61AB2290510883087001F22051428
:10038000470887001F228622A612CD20261AEA29B6
:100390004608C100EB21A61AC42905108A3087003F
:1003A0001F220514470887001F228622A612CD208F
:1003B000261AEA294608C000EB21A61AD6290510FC
:1003C0008B3087001F220514470887001F228622D2
:1003D000261E7B290800000003304502831CF129FA
:1003E000052A02304502031DFB29F6290430440288
:1003F000831CFB29072A06304302831C002A092A92
:1004000006304102831C0F2A0B2AC5010D2AC401A4
:100410000D2AC3010D2AC1010D2AA6160800A61235
:1004200008002A304706031D1B2A051001308700EB
:100430001F2205141E2AC70887001F2208008510E6
:100440008F228514952208000510843087001F2212
:1004500005143030330787001F22051085308700D0
:100460001F2205143030340787001F220510863004
:1004700087001F2205143A3087001F22051087309D
:1004800087001F2205143030350787001F22051012
:10049000883087001F2205143030360787001F225E
:1004A0000510893087001F2205143A3087001F226B
:1004B00005108A3087001F22051430303707870067
:1004C0001F2205108B3087001F220514303038079B
:1004D00087001F2206110800051038301F220C303B
:1004E00087001F22013087001F22063087001F224D
:1004F000803087001F22051408004630D200FF30EC
:10050000D100D10B812AD20B7F2A0800FF30D20004
:10051000FF30D100D10B8A2AD20B882A0800A7010C
:1005200001302702031D902A0800A7012830270266
:06053000031D962A0800DD
:044000000034003454
:02400E00313F40
:00000001FF
