:020000040000FA
:040000008A015028F9
:08000800A9000308B000830108
:100010000A08B1008A010408B2000B1919208330C4
:1000200081003208840031088A00300883002908E2
:100030000900B60AB30A64303306031920282928B8
:10004000B301B40A0A303406031D2928B301B401F0
:1000500035140B1108008316823081003C30850076
:10006000FF30860000308700FF30880007308900AD
:1000700006309F008312A0308B00833081008701FF
:1000800003308500A901B001B101B201B301B4018F
:10009000B501A301A401A501A601A701A8010800BB
:1000A0002B205C200510883087006E20051431302D
:1000B00087006E2000005A280510383087006E2017
:1000C0000C3087006E20013087006E2000308700E2
:1000D0006E20803087006E20051408008510722085
:1000E00085147820B60101303602031D73280800FC
:0C00F000B60128303602031D79280800F4
:02400E00313F40
:00000001FF
