:020000040000FA
:040000008A01412808
:08000800A0000308A100830120
:100010000A08A2008A010408A3000B1919208330E2
:1000200081002308840022088A0021088300200818
:100030000900A70AA40A64302406031920282928E5
:10004000A401A50A05302506031D2928A401A50140
:1000500026140B1108008316823081002F30850092
:10006000FF308600FF308700FF30880007308900AE
:1000700006309F008312A0308B0083308100A601E0
:1000800008002B204920051E472805124228051686
:0C00900042280000261C49282610080009
:02400E00393F38
:00000001FF
